{
  "_format": "hh-sol-artifact-1",
  "contractName": "OtterNFT",
  "sourceName": "contracts/OtterNFT.sol",
  "abi": [
    {
      "inputs": [
        {
          "internalType": "address",
          "name": "svgContractAddress",
          "type": "address"
        }
      ],
      "stateMutability": "nonpayable",
      "type": "constructor"
    },
    {
      "anonymous": false,
      "inputs": [
        {
          "indexed": true,
          "internalType": "address",
          "name": "owner",
          "type": "address"
        },
        {
          "indexed": true,
          "internalType": "address",
          "name": "approved",
          "type": "address"
        },
        {
          "indexed": true,
          "internalType": "uint256",
          "name": "tokenId",
          "type": "uint256"
        }
      ],
      "name": "Approval",
      "type": "event"
    },
    {
      "anonymous": false,
      "inputs": [
        {
          "indexed": true,
          "internalType": "address",
          "name": "owner",
          "type": "address"
        },
        {
          "indexed": true,
          "internalType": "address",
          "name": "operator",
          "type": "address"
        },
        {
          "indexed": false,
          "internalType": "bool",
          "name": "approved",
          "type": "bool"
        }
      ],
      "name": "ApprovalForAll",
      "type": "event"
    },
    {
      "anonymous": false,
      "inputs": [
        {
          "indexed": false,
          "internalType": "address",
          "name": "sender",
          "type": "address"
        },
        {
          "indexed": false,
          "internalType": "uint256",
          "name": "tokenId",
          "type": "uint256"
        }
      ],
      "name": "NewOtterMinted",
      "type": "event"
    },
    {
      "anonymous": false,
      "inputs": [
        {
          "indexed": true,
          "internalType": "address",
          "name": "from",
          "type": "address"
        },
        {
          "indexed": true,
          "internalType": "address",
          "name": "to",
          "type": "address"
        },
        {
          "indexed": true,
          "internalType": "uint256",
          "name": "tokenId",
          "type": "uint256"
        }
      ],
      "name": "Transfer",
      "type": "event"
    },
    {
      "inputs": [
        {
          "internalType": "address",
          "name": "to",
          "type": "address"
        },
        {
          "internalType": "uint256",
          "name": "tokenId",
          "type": "uint256"
        }
      ],
      "name": "approve",
      "outputs": [],
      "stateMutability": "nonpayable",
      "type": "function"
    },
    {
      "inputs": [
        {
          "internalType": "address",
          "name": "owner",
          "type": "address"
        }
      ],
      "name": "balanceOf",
      "outputs": [
        {
          "internalType": "uint256",
          "name": "",
          "type": "uint256"
        }
      ],
      "stateMutability": "view",
      "type": "function"
    },
    {
      "inputs": [
        {
          "internalType": "uint256",
          "name": "tokenId",
          "type": "uint256"
        }
      ],
      "name": "getApproved",
      "outputs": [
        {
          "internalType": "address",
          "name": "",
          "type": "address"
        }
      ],
      "stateMutability": "view",
      "type": "function"
    },
    {
      "inputs": [
        {
          "internalType": "address",
          "name": "owner",
          "type": "address"
        },
        {
          "internalType": "address",
          "name": "operator",
          "type": "address"
        }
      ],
      "name": "isApprovedForAll",
      "outputs": [
        {
          "internalType": "bool",
          "name": "",
          "type": "bool"
        }
      ],
      "stateMutability": "view",
      "type": "function"
    },
    {
      "inputs": [],
      "name": "makeAnOtterNFT",
      "outputs": [],
      "stateMutability": "nonpayable",
      "type": "function"
    },
    {
      "inputs": [],
      "name": "name",
      "outputs": [
        {
          "internalType": "string",
          "name": "",
          "type": "string"
        }
      ],
      "stateMutability": "view",
      "type": "function"
    },
    {
      "inputs": [
        {
          "internalType": "uint256",
          "name": "tokenId",
          "type": "uint256"
        }
      ],
      "name": "ownerOf",
      "outputs": [
        {
          "internalType": "address",
          "name": "",
          "type": "address"
        }
      ],
      "stateMutability": "view",
      "type": "function"
    },
    {
      "inputs": [
        {
          "internalType": "address",
          "name": "from",
          "type": "address"
        },
        {
          "internalType": "address",
          "name": "to",
          "type": "address"
        },
        {
          "internalType": "uint256",
          "name": "tokenId",
          "type": "uint256"
        }
      ],
      "name": "safeTransferFrom",
      "outputs": [],
      "stateMutability": "nonpayable",
      "type": "function"
    },
    {
      "inputs": [
        {
          "internalType": "address",
          "name": "from",
          "type": "address"
        },
        {
          "internalType": "address",
          "name": "to",
          "type": "address"
        },
        {
          "internalType": "uint256",
          "name": "tokenId",
          "type": "uint256"
        },
        {
          "internalType": "bytes",
          "name": "_data",
          "type": "bytes"
        }
      ],
      "name": "safeTransferFrom",
      "outputs": [],
      "stateMutability": "nonpayable",
      "type": "function"
    },
    {
      "inputs": [
        {
          "internalType": "address",
          "name": "operator",
          "type": "address"
        },
        {
          "internalType": "bool",
          "name": "approved",
          "type": "bool"
        }
      ],
      "name": "setApprovalForAll",
      "outputs": [],
      "stateMutability": "nonpayable",
      "type": "function"
    },
    {
      "inputs": [
        {
          "internalType": "bytes4",
          "name": "interfaceId",
          "type": "bytes4"
        }
      ],
      "name": "supportsInterface",
      "outputs": [
        {
          "internalType": "bool",
          "name": "",
          "type": "bool"
        }
      ],
      "stateMutability": "view",
      "type": "function"
    },
    {
      "inputs": [],
      "name": "symbol",
      "outputs": [
        {
          "internalType": "string",
          "name": "",
          "type": "string"
        }
      ],
      "stateMutability": "view",
      "type": "function"
    },
    {
      "inputs": [
        {
          "internalType": "uint256",
          "name": "tokenId",
          "type": "uint256"
        }
      ],
      "name": "tokenURI",
      "outputs": [
        {
          "internalType": "string",
          "name": "",
          "type": "string"
        }
      ],
      "stateMutability": "view",
      "type": "function"
    },
    {
      "inputs": [
        {
          "internalType": "address",
          "name": "from",
          "type": "address"
        },
        {
          "internalType": "address",
          "name": "to",
          "type": "address"
        },
        {
          "internalType": "uint256",
          "name": "tokenId",
          "type": "uint256"
        }
      ],
      "name": "transferFrom",
      "outputs": [],
      "stateMutability": "nonpayable",
      "type": "function"
    }
  ],
  "bytecode": "0x60806040523480156200001157600080fd5b5060405162003300380380620033008339818101604052810190620000379190620002fd565b6040518060400160405280600681526020017f4f747465727300000000000000000000000000000000000000000000000000008152506040518060400160405280600581526020017f4f545445520000000000000000000000000000000000000000000000000000008152508160009080519060200190620000bb92919062000236565b508060019080519060200190620000d492919062000236565b50505080600860006101000a81548173ffffffffffffffffffffffffffffffffffffffff021916908373ffffffffffffffffffffffffffffffffffffffff160217905550620001636040518060400160405280601e81526020017f54686973206973206d79204e465420636f6e74726163742e2057686f612100008152506200016a60201b62000c3a1760201c565b50620004a4565b6200020a816040516024016200018191906200036a565b6040516020818303038152906040527f41304fac000000000000000000000000000000000000000000000000000000007bffffffffffffffffffffffffffffffffffffffffffffffffffffffff19166020820180517bffffffffffffffffffffffffffffffffffffffffffffffffffffffff83818316178352505050506200020d60201b60201c565b50565b60008151905060006a636f6e736f6c652e6c6f679050602083016000808483855afa5050505050565b828054620002449062000414565b90600052602060002090601f016020900481019282620002685760008555620002b4565b82601f106200028357805160ff1916838001178555620002b4565b82800160010185558215620002b4579182015b82811115620002b357825182559160200191906001019062000296565b5b509050620002c39190620002c7565b5090565b5b80821115620002e2576000816000905550600101620002c8565b5090565b600081519050620002f7816200048a565b92915050565b6000602082840312156200031057600080fd5b60006200032084828501620002e6565b91505092915050565b600062000336826200038e565b62000342818562000399565b935062000354818560208601620003de565b6200035f8162000479565b840191505092915050565b6000602082019050818103600083015262000386818462000329565b905092915050565b600081519050919050565b600082825260208201905092915050565b6000620003b782620003be565b9050919050565b600073ffffffffffffffffffffffffffffffffffffffff82169050919050565b60005b83811015620003fe578082015181840152602081019050620003e1565b838111156200040e576000848401525b50505050565b600060028204905060018216806200042d57607f821691505b602082108114156200044457620004436200044a565b5b50919050565b7f4e487b7100000000000000000000000000000000000000000000000000000000600052602260045260246000fd5b6000601f19601f8301169050919050565b6200049581620003aa565b8114620004a157600080fd5b50565b612e4c80620004b46000396000f3fe608060405234801561001057600080fd5b50600436106100ea5760003560e01c806365b330e61161008c578063a22cb46511610066578063a22cb46514610249578063b88d4fde14610265578063c87b56dd14610281578063e985e9c5146102b1576100ea565b806365b330e6146101f157806370a08231146101fb57806395d89b411461022b576100ea565b8063095ea7b3116100c8578063095ea7b31461016d57806323b872dd1461018957806342842e0e146101a55780636352211e146101c1576100ea565b806301ffc9a7146100ef57806306fdde031461011f578063081812fc1461013d575b600080fd5b61010960048036038101906101049190611eb1565b6102e1565b6040516101169190612741565b60405180910390f35b6101276103c3565b604051610134919061275c565b60405180910390f35b61015760048036038101906101529190611f44565b610455565b60405161016491906126b1565b60405180910390f35b61018760048036038101906101829190611e75565b6104da565b005b6101a3600480360381019061019e9190611d6f565b6105f2565b005b6101bf60048036038101906101ba9190611d6f565b610652565b005b6101db60048036038101906101d69190611f44565b610672565b6040516101e891906126b1565b60405180910390f35b6101f9610724565b005b61021560048036038101906102109190611d0a565b610892565b60405161022291906129bc565b60405180910390f35b61023361094a565b604051610240919061275c565b60405180910390f35b610263600480360381019061025e9190611e39565b6109dc565b005b61027f600480360381019061027a9190611dbe565b6109f2565b005b61029b60048036038101906102969190611f44565b610a54565b6040516102a8919061275c565b60405180910390f35b6102cb60048036038101906102c69190611d33565b610ba6565b6040516102d89190612741565b60405180910390f35b60007f80ac58cd000000000000000000000000000000000000000000000000000000007bffffffffffffffffffffffffffffffffffffffffffffffffffffffff1916827bffffffffffffffffffffffffffffffffffffffffffffffffffffffff191614806103ac57507f5b5e139f000000000000000000000000000000000000000000000000000000007bffffffffffffffffffffffffffffffffffffffffffffffffffffffff1916827bffffffffffffffffffffffffffffffffffffffffffffffffffffffff1916145b806103bc57506103bb82610cd3565b5b9050919050565b6060600080546103d290612c1c565b80601f01602080910402602001604051908101604052809291908181526020018280546103fe90612c1c565b801561044b5780601f106104205761010080835404028352916020019161044b565b820191906000526020600020905b81548152906001019060200180831161042e57829003601f168201915b5050505050905090565b600061046082610d3d565b61049f576040517f08c379a00000000000000000000000000000000000000000000000000000000081526004016104969061291c565b60405180910390fd5b6004600083815260200190815260200160002060009054906101000a900473ffffffffffffffffffffffffffffffffffffffff169050919050565b60006104e582610672565b90508073ffffffffffffffffffffffffffffffffffffffff168373ffffffffffffffffffffffffffffffffffffffff161415610556576040517f08c379a000000000000000000000000000000000000000000000000000000000815260040161054d9061297c565b60405180910390fd5b8073ffffffffffffffffffffffffffffffffffffffff16610575610da9565b73ffffffffffffffffffffffffffffffffffffffff1614806105a457506105a38161059e610da9565b610ba6565b5b6105e3576040517f08c379a00000000000000000000000000000000000000000000000000000000081526004016105da9061285c565b60405180910390fd5b6105ed8383610db1565b505050565b6106036105fd610da9565b82610e6a565b610642576040517f08c379a00000000000000000000000000000000000000000000000000000000081526004016106399061299c565b60405180910390fd5b61064d838383610f48565b505050565b61066d838383604051806020016040528060008152506109f2565b505050565b6000806002600084815260200190815260200160002060009054906101000a900473ffffffffffffffffffffffffffffffffffffffff169050600073ffffffffffffffffffffffffffffffffffffffff168173ffffffffffffffffffffffffffffffffffffffff16141561071b576040517f08c379a00000000000000000000000000000000000000000000000000000000081526004016107129061289c565b60405180910390fd5b80915050919050565b61072e60076111a4565b600061073a60076111ba565b90506000600860009054906101000a900473ffffffffffffffffffffffffffffffffffffffff1673ffffffffffffffffffffffffffffffffffffffff1663015e1a0b836040518263ffffffff1660e01b815260040161079991906129bc565b60006040518083038186803b1580156107b157600080fd5b505afa1580156107c5573d6000803e3d6000fd5b505050506040513d6000823e3d601f19601f820116820180604052508101906107ee9190611f03565b9050600081604051602001610803919061268f565b604051602081830303815290604052905061081e33846111c8565b61082883826111e6565b61084b604051806060016040528060258152602001612df260259139843361125a565b61085481610c3a565b7f864dd391509a79873e59c4edc1434ed0f23fc32690b8a29ac8b8ba71c26cbc7f3384604051610885929190612718565b60405180910390a1505050565b60008073ffffffffffffffffffffffffffffffffffffffff168273ffffffffffffffffffffffffffffffffffffffff161415610903576040517f08c379a00000000000000000000000000000000000000000000000000000000081526004016108fa9061287c565b60405180910390fd5b600360008373ffffffffffffffffffffffffffffffffffffffff1673ffffffffffffffffffffffffffffffffffffffff168152602001908152602001600020549050919050565b60606001805461095990612c1c565b80601f016020809104026020016040519081016040528092919081815260200182805461098590612c1c565b80156109d25780601f106109a7576101008083540402835291602001916109d2565b820191906000526020600020905b8154815290600101906020018083116109b557829003601f168201915b5050505050905090565b6109ee6109e7610da9565b83836112f9565b5050565b610a036109fd610da9565b83610e6a565b610a42576040517f08c379a0000000000000000000000000000000000000000000000000000000008152600401610a399061299c565b60405180910390fd5b610a4e84848484611466565b50505050565b6060610a5f82610d3d565b610a9e576040517f08c379a0000000000000000000000000000000000000000000000000000000008152600401610a95906128fc565b60405180910390fd5b6000600660008481526020019081526020016000208054610abe90612c1c565b80601f0160208091040260200160405190810160405280929190818152602001828054610aea90612c1c565b8015610b375780601f10610b0c57610100808354040283529160200191610b37565b820191906000526020600020905b815481529060010190602001808311610b1a57829003601f168201915b505050505090506000610b486114c2565b9050600081511415610b5e578192505050610ba1565b600082511115610b93578082604051602001610b7b92919061266b565b60405160208183030381529060405292505050610ba1565b610b9c846114d9565b925050505b919050565b6000600560008473ffffffffffffffffffffffffffffffffffffffff1673ffffffffffffffffffffffffffffffffffffffff16815260200190815260200160002060008373ffffffffffffffffffffffffffffffffffffffff1673ffffffffffffffffffffffffffffffffffffffff16815260200190815260200160002060009054906101000a900460ff16905092915050565b610cd081604051602401610c4e919061275c565b6040516020818303038152906040527f41304fac000000000000000000000000000000000000000000000000000000007bffffffffffffffffffffffffffffffffffffffffffffffffffffffff19166020820180517bffffffffffffffffffffffffffffffffffffffffffffffffffffffff8381831617835250505050611580565b50565b60007f01ffc9a7000000000000000000000000000000000000000000000000000000007bffffffffffffffffffffffffffffffffffffffffffffffffffffffff1916827bffffffffffffffffffffffffffffffffffffffffffffffffffffffff1916149050919050565b60008073ffffffffffffffffffffffffffffffffffffffff166002600084815260200190815260200160002060009054906101000a900473ffffffffffffffffffffffffffffffffffffffff1673ffffffffffffffffffffffffffffffffffffffff1614159050919050565b600033905090565b816004600083815260200190815260200160002060006101000a81548173ffffffffffffffffffffffffffffffffffffffff021916908373ffffffffffffffffffffffffffffffffffffffff160217905550808273ffffffffffffffffffffffffffffffffffffffff16610e2483610672565b73ffffffffffffffffffffffffffffffffffffffff167f8c5be1e5ebec7d5bd14f71427d1e84f3dd0314c0f7b2291e5b200ac8c7c3b92560405160405180910390a45050565b6000610e7582610d3d565b610eb4576040517f08c379a0000000000000000000000000000000000000000000000000000000008152600401610eab9061283c565b60405180910390fd5b6000610ebf83610672565b90508073ffffffffffffffffffffffffffffffffffffffff168473ffffffffffffffffffffffffffffffffffffffff161480610f2e57508373ffffffffffffffffffffffffffffffffffffffff16610f1684610455565b73ffffffffffffffffffffffffffffffffffffffff16145b80610f3f5750610f3e8185610ba6565b5b91505092915050565b8273ffffffffffffffffffffffffffffffffffffffff16610f6882610672565b73ffffffffffffffffffffffffffffffffffffffff1614610fbe576040517f08c379a0000000000000000000000000000000000000000000000000000000008152600401610fb59061293c565b60405180910390fd5b600073ffffffffffffffffffffffffffffffffffffffff168273ffffffffffffffffffffffffffffffffffffffff16141561102e576040517f08c379a0000000000000000000000000000000000000000000000000000000008152600401611025906127fc565b60405180910390fd5b6110398383836115a9565b611044600082610db1565b6001600360008573ffffffffffffffffffffffffffffffffffffffff1673ffffffffffffffffffffffffffffffffffffffff16815260200190815260200160002060008282546110949190612b32565b925050819055506001600360008473ffffffffffffffffffffffffffffffffffffffff1673ffffffffffffffffffffffffffffffffffffffff16815260200190815260200160002060008282546110eb9190612aab565b92505081905550816002600083815260200190815260200160002060006101000a81548173ffffffffffffffffffffffffffffffffffffffff021916908373ffffffffffffffffffffffffffffffffffffffff160217905550808273ffffffffffffffffffffffffffffffffffffffff168473ffffffffffffffffffffffffffffffffffffffff167fddf252ad1be2c89b69c2b068fc378daa952ba7f163c4a11628f55a4df523b3ef60405160405180910390a4505050565b6001816000016000828254019250508190555050565b600081600001549050919050565b6111e28282604051806020016040528060008152506115ae565b5050565b6111ef82610d3d565b61122e576040517f08c379a0000000000000000000000000000000000000000000000000000000008152600401611225906128bc565b60405180910390fd5b80600660008481526020019081526020016000209080519060200190611255929190611b2e565b505050565b6112f48383836040516024016112729392919061277e565b6040516020818303038152906040527fe3849f79000000000000000000000000000000000000000000000000000000007bffffffffffffffffffffffffffffffffffffffffffffffffffffffff19166020820180517bffffffffffffffffffffffffffffffffffffffffffffffffffffffff8381831617835250505050611580565b505050565b8173ffffffffffffffffffffffffffffffffffffffff168373ffffffffffffffffffffffffffffffffffffffff161415611368576040517f08c379a000000000000000000000000000000000000000000000000000000000815260040161135f9061281c565b60405180910390fd5b80600560008573ffffffffffffffffffffffffffffffffffffffff1673ffffffffffffffffffffffffffffffffffffffff16815260200190815260200160002060008473ffffffffffffffffffffffffffffffffffffffff1673ffffffffffffffffffffffffffffffffffffffff16815260200190815260200160002060006101000a81548160ff0219169083151502179055508173ffffffffffffffffffffffffffffffffffffffff168373ffffffffffffffffffffffffffffffffffffffff167f17307eab39ab6107e8899845ad3d59bd9653f200f220920489ca2b5937696c31836040516114599190612741565b60405180910390a3505050565b611471848484610f48565b61147d84848484611609565b6114bc576040517f08c379a00000000000000000000000000000000000000000000000000000000081526004016114b3906127bc565b60405180910390fd5b50505050565b606060405180602001604052806000815250905090565b60606114e482610d3d565b611523576040517f08c379a000000000000000000000000000000000000000000000000000000000815260040161151a9061295c565b60405180910390fd5b600061152d6114c2565b9050600081511161154d5760405180602001604052806000815250611578565b80611557846117a0565b60405160200161156892919061266b565b6040516020818303038152906040525b915050919050565b60008151905060006a636f6e736f6c652e6c6f679050602083016000808483855afa5050505050565b505050565b6115b8838361194d565b6115c56000848484611609565b611604576040517f08c379a00000000000000000000000000000000000000000000000000000000081526004016115fb906127bc565b60405180910390fd5b505050565b600061162a8473ffffffffffffffffffffffffffffffffffffffff16611b1b565b15611793578373ffffffffffffffffffffffffffffffffffffffff1663150b7a02611653610da9565b8786866040518563ffffffff1660e01b815260040161167594939291906126cc565b602060405180830381600087803b15801561168f57600080fd5b505af19250505080156116c057506040513d601f19601f820116820180604052508101906116bd9190611eda565b60015b611743573d80600081146116f0576040519150601f19603f3d011682016040523d82523d6000602084013e6116f5565b606091505b5060008151141561173b576040517f08c379a0000000000000000000000000000000000000000000000000000000008152600401611732906127bc565b60405180910390fd5b805181602001fd5b63150b7a0260e01b7bffffffffffffffffffffffffffffffffffffffffffffffffffffffff1916817bffffffffffffffffffffffffffffffffffffffffffffffffffffffff191614915050611798565b600190505b949350505050565b606060008214156117e8576040518060400160405280600181526020017f30000000000000000000000000000000000000000000000000000000000000008152509050611948565b600082905060005b6000821461181a57808061180390612c4e565b915050600a826118139190612b01565b91506117f0565b60008167ffffffffffffffff81111561185c577f4e487b7100000000000000000000000000000000000000000000000000000000600052604160045260246000fd5b6040519080825280601f01601f19166020018201604052801561188e5781602001600182028036833780820191505090505b5090505b60008514611941576001826118a79190612b32565b9150600a856118b69190612c97565b60306118c29190612aab565b60f81b8183815181106118fe577f4e487b7100000000000000000000000000000000000000000000000000000000600052603260045260246000fd5b60200101907effffffffffffffffffffffffffffffffffffffffffffffffffffffffffffff1916908160001a905350600a8561193a9190612b01565b9450611892565b8093505050505b919050565b600073ffffffffffffffffffffffffffffffffffffffff168273ffffffffffffffffffffffffffffffffffffffff1614156119bd576040517f08c379a00000000000000000000000000000000000000000000000000000000081526004016119b4906128dc565b60405180910390fd5b6119c681610d3d565b15611a06576040517f08c379a00000000000000000000000000000000000000000000000000000000081526004016119fd906127dc565b60405180910390fd5b611a12600083836115a9565b6001600360008473ffffffffffffffffffffffffffffffffffffffff1673ffffffffffffffffffffffffffffffffffffffff1681526020019081526020016000206000828254611a629190612aab565b92505081905550816002600083815260200190815260200160002060006101000a81548173ffffffffffffffffffffffffffffffffffffffff021916908373ffffffffffffffffffffffffffffffffffffffff160217905550808273ffffffffffffffffffffffffffffffffffffffff16600073ffffffffffffffffffffffffffffffffffffffff167fddf252ad1be2c89b69c2b068fc378daa952ba7f163c4a11628f55a4df523b3ef60405160405180910390a45050565b600080823b905060008111915050919050565b828054611b3a90612c1c565b90600052602060002090601f016020900481019282611b5c5760008555611ba3565b82601f10611b7557805160ff1916838001178555611ba3565b82800160010185558215611ba3579182015b82811115611ba2578251825591602001919060010190611b87565b5b509050611bb09190611bb4565b5090565b5b80821115611bcd576000816000905550600101611bb5565b5090565b6000611be4611bdf84612a08565b6129d7565b905082815260208101848484011115611bfc57600080fd5b611c07848285612bda565b509392505050565b6000611c22611c1d84612a38565b6129d7565b905082815260208101848484011115611c3a57600080fd5b611c45848285612be9565b509392505050565b600081359050611c5c81612d95565b92915050565b600081359050611c7181612dac565b92915050565b600081359050611c8681612dc3565b92915050565b600081519050611c9b81612dc3565b92915050565b600082601f830112611cb257600080fd5b8135611cc2848260208601611bd1565b91505092915050565b600082601f830112611cdc57600080fd5b8151611cec848260208601611c0f565b91505092915050565b600081359050611d0481612dda565b92915050565b600060208284031215611d1c57600080fd5b6000611d2a84828501611c4d565b91505092915050565b60008060408385031215611d4657600080fd5b6000611d5485828601611c4d565b9250506020611d6585828601611c4d565b9150509250929050565b600080600060608486031215611d8457600080fd5b6000611d9286828701611c4d565b9350506020611da386828701611c4d565b9250506040611db486828701611cf5565b9150509250925092565b60008060008060808587031215611dd457600080fd5b6000611de287828801611c4d565b9450506020611df387828801611c4d565b9350506040611e0487828801611cf5565b925050606085013567ffffffffffffffff811115611e2157600080fd5b611e2d87828801611ca1565b91505092959194509250565b60008060408385031215611e4c57600080fd5b6000611e5a85828601611c4d565b9250506020611e6b85828601611c62565b9150509250929050565b60008060408385031215611e8857600080fd5b6000611e9685828601611c4d565b9250506020611ea785828601611cf5565b9150509250929050565b600060208284031215611ec357600080fd5b6000611ed184828501611c77565b91505092915050565b600060208284031215611eec57600080fd5b6000611efa84828501611c8c565b91505092915050565b600060208284031215611f1557600080fd5b600082015167ffffffffffffffff811115611f2f57600080fd5b611f3b84828501611ccb565b91505092915050565b600060208284031215611f5657600080fd5b6000611f6484828501611cf5565b91505092915050565b611f7681612b66565b82525050565b611f8581612b78565b82525050565b6000611f9682612a68565b611fa08185612a7e565b9350611fb0818560208601612be9565b611fb981612d84565b840191505092915050565b6000611fcf82612a73565b611fd98185612a8f565b9350611fe9818560208601612be9565b611ff281612d84565b840191505092915050565b600061200882612a73565b6120128185612aa0565b9350612022818560208601612be9565b80840191505092915050565b600061203b603283612a8f565b91507f4552433732313a207472616e7366657220746f206e6f6e20455243373231526560008301527f63656976657220696d706c656d656e74657200000000000000000000000000006020830152604082019050919050565b60006120a1601c83612a8f565b91507f4552433732313a20746f6b656e20616c7265616479206d696e746564000000006000830152602082019050919050565b60006120e1602483612a8f565b91507f4552433732313a207472616e7366657220746f20746865207a65726f2061646460008301527f72657373000000000000000000000000000000000000000000000000000000006020830152604082019050919050565b6000612147601983612a8f565b91507f4552433732313a20617070726f766520746f2063616c6c6572000000000000006000830152602082019050919050565b6000612187602c83612a8f565b91507f4552433732313a206f70657261746f7220717565727920666f72206e6f6e657860008301527f697374656e7420746f6b656e00000000000000000000000000000000000000006020830152604082019050919050565b60006121ed603883612a8f565b91507f4552433732313a20617070726f76652063616c6c6572206973206e6f74206f7760008301527f6e6572206e6f7220617070726f76656420666f7220616c6c00000000000000006020830152604082019050919050565b6000612253602a83612a8f565b91507f4552433732313a2062616c616e636520717565727920666f7220746865207a6560008301527f726f2061646472657373000000000000000000000000000000000000000000006020830152604082019050919050565b60006122b9602983612a8f565b91507f4552433732313a206f776e657220717565727920666f72206e6f6e657869737460008301527f656e7420746f6b656e00000000000000000000000000000000000000000000006020830152604082019050919050565b600061231f602e83612a8f565b91507f45524337323155524953746f726167653a2055524920736574206f66206e6f6e60008301527f6578697374656e7420746f6b656e0000000000000000000000000000000000006020830152604082019050919050565b6000612385602083612a8f565b91507f4552433732313a206d696e7420746f20746865207a65726f20616464726573736000830152602082019050919050565b60006123c5603183612a8f565b91507f45524337323155524953746f726167653a2055524920717565727920666f722060008301527f6e6f6e6578697374656e7420746f6b656e0000000000000000000000000000006020830152604082019050919050565b600061242b602c83612a8f565b91507f4552433732313a20617070726f76656420717565727920666f72206e6f6e657860008301527f697374656e7420746f6b656e00000000000000000000000000000000000000006020830152604082019050919050565b6000612491602983612a8f565b91507f4552433732313a207472616e73666572206f6620746f6b656e2074686174206960008301527f73206e6f74206f776e00000000000000000000000000000000000000000000006020830152604082019050919050565b60006124f7602f83612a8f565b91507f4552433732314d657461646174613a2055524920717565727920666f72206e6f60008301527f6e6578697374656e7420746f6b656e00000000000000000000000000000000006020830152604082019050919050565b600061255d602183612a8f565b91507f4552433732313a20617070726f76616c20746f2063757272656e74206f776e6560008301527f72000000000000000000000000000000000000000000000000000000000000006020830152604082019050919050565b60006125c3601d83612aa0565b91507f646174613a6170706c69636174696f6e2f6a736f6e3b6261736536342c0000006000830152601d82019050919050565b6000612603603183612a8f565b91507f4552433732313a207472616e736665722063616c6c6572206973206e6f74206f60008301527f776e6572206e6f7220617070726f7665640000000000000000000000000000006020830152604082019050919050565b61266581612bd0565b82525050565b60006126778285611ffd565b91506126838284611ffd565b91508190509392505050565b600061269a826125b6565b91506126a68284611ffd565b915081905092915050565b60006020820190506126c66000830184611f6d565b92915050565b60006080820190506126e16000830187611f6d565b6126ee6020830186611f6d565b6126fb604083018561265c565b818103606083015261270d8184611f8b565b905095945050505050565b600060408201905061272d6000830185611f6d565b61273a602083018461265c565b9392505050565b60006020820190506127566000830184611f7c565b92915050565b600060208201905081810360008301526127768184611fc4565b905092915050565b600060608201905081810360008301526127988186611fc4565b90506127a7602083018561265c565b6127b46040830184611f6d565b949350505050565b600060208201905081810360008301526127d58161202e565b9050919050565b600060208201905081810360008301526127f581612094565b9050919050565b60006020820190508181036000830152612815816120d4565b9050919050565b600060208201905081810360008301526128358161213a565b9050919050565b600060208201905081810360008301526128558161217a565b9050919050565b60006020820190508181036000830152612875816121e0565b9050919050565b6000602082019050818103600083015261289581612246565b9050919050565b600060208201905081810360008301526128b5816122ac565b9050919050565b600060208201905081810360008301526128d581612312565b9050919050565b600060208201905081810360008301526128f581612378565b9050919050565b60006020820190508181036000830152612915816123b8565b9050919050565b600060208201905081810360008301526129358161241e565b9050919050565b6000602082019050818103600083015261295581612484565b9050919050565b60006020820190508181036000830152612975816124ea565b9050919050565b6000602082019050818103600083015261299581612550565b9050919050565b600060208201905081810360008301526129b5816125f6565b9050919050565b60006020820190506129d1600083018461265c565b92915050565b6000604051905081810181811067ffffffffffffffff821117156129fe576129fd612d55565b5b8060405250919050565b600067ffffffffffffffff821115612a2357612a22612d55565b5b601f19601f8301169050602081019050919050565b600067ffffffffffffffff821115612a5357612a52612d55565b5b601f19601f8301169050602081019050919050565b600081519050919050565b600081519050919050565b600082825260208201905092915050565b600082825260208201905092915050565b600081905092915050565b6000612ab682612bd0565b9150612ac183612bd0565b9250827fffffffffffffffffffffffffffffffffffffffffffffffffffffffffffffffff03821115612af657612af5612cc8565b5b828201905092915050565b6000612b0c82612bd0565b9150612b1783612bd0565b925082612b2757612b26612cf7565b5b828204905092915050565b6000612b3d82612bd0565b9150612b4883612bd0565b925082821015612b5b57612b5a612cc8565b5b828203905092915050565b6000612b7182612bb0565b9050919050565b60008115159050919050565b60007fffffffff0000000000000000000000000000000000000000000000000000000082169050919050565b600073ffffffffffffffffffffffffffffffffffffffff82169050919050565b6000819050919050565b82818337600083830152505050565b60005b83811015612c07578082015181840152602081019050612bec565b83811115612c16576000848401525b50505050565b60006002820490506001821680612c3457607f821691505b60208210811415612c4857612c47612d26565b5b50919050565b6000612c5982612bd0565b91507fffffffffffffffffffffffffffffffffffffffffffffffffffffffffffffffff821415612c8c57612c8b612cc8565b5b600182019050919050565b6000612ca282612bd0565b9150612cad83612bd0565b925082612cbd57612cbc612cf7565b5b828206905092915050565b7f4e487b7100000000000000000000000000000000000000000000000000000000600052601160045260246000fd5b7f4e487b7100000000000000000000000000000000000000000000000000000000600052601260045260246000fd5b7f4e487b7100000000000000000000000000000000000000000000000000000000600052602260045260246000fd5b7f4e487b7100000000000000000000000000000000000000000000000000000000600052604160045260246000fd5b6000601f19601f8301169050919050565b612d9e81612b66565b8114612da957600080fd5b50565b612db581612b78565b8114612dc057600080fd5b50565b612dcc81612b84565b8114612dd757600080fd5b50565b612de381612bd0565b8114612dee57600080fd5b5056fe416e204e465420772f20494420257320686173206265656e206d696e74656420746f202573a26469706673582212205e894f69e73558fc51512f6057c6370546c9cd0181d5d3a2b03d05b7d412800264736f6c63430008000033",
  "linkReferences": {},
  "deployedLinkReferences": {}
}